:020000040800F2
:1000000000040020470100089D0100089F0100082E
:10001000A1010008A3010008A501000800000000DC
:10002000000000000000000000000000A701000820
:10003000A90100080000000057470008AD010008B2
:1000400067010008670100086701000867010008F0
:1000500067010008670100086701000867010008E0
:10006000670100086701000867010008011800081F
:100070001D1A0008670100083B1800086701000806
:1000800067010008670100086701000867010008B0
:1000900067010008670100086701000867010008A0
:1000A0006701000867010008670100086701000890
:1000B0006701000867010008670100086701000880
:1000C0006701000867010008670100086701000870
:1000D000670100086701000867010008651A000849
:1000E0006701000867010008670100086701000850
:1000F0006701000867010008670100086701000840
:10010000670100086701000867010008670100082F
:10011000670100086701000867010008670100081F
:10012000670100086701000867010008670100080F
:10013000DFF80CD004F0A4FB00480047750100086C
:10014000781A0020704708488047084981F30888DA
:1001500007480047FEE7FEE7FEE7FEE7FEE7FEE7AB
:10016000FEE7FEE7FEE7FEE745010008781A0020FB
:100170003101000810B501F03FFA01F020FE15230F
:10018000044A0021044803F035FC01F030FF002050
:1001900010BD000030020020E11B00087047FEE7A0
:1001A000FEE7FEE7FEE770477047704710B501F0C5
:1001B0009EFE01F063FFBDE8104001F0A2BE00000A
:1001C000894A10B5811A1315D41490422ED00DDC33
:1001D000864940181CD0984221D0A0423BD1012131
:1001E000102000F025FA002110200DE0994224D0C3
:1001F000A14229D0B1F5406F2DD101210C0220463A
:1002000000F016FA00212046BDE8104000F010BAB8
:100210000121042000F00CFA00210420F4E7012160
:10022000082000F005FA00210820EDE70121202038
:1002300000F0FEF900212020E6E70121402000F037
:10024000F7F900214020DFE70121802000F0F0F9DC
:1002500000218020D8E710BD10B50121084600F02C
:10026000E7F90021BDE81040012000F0E1B9F0B548
:10027000CC78002204F00F03E40601D58C782343E8
:100280000C784FF00F0C14F0FF0F4FF0010E1BD045
:1002900005680E880EFA02F42640A64210D1960098
:1002A0000CFA06F725EA070703FA06F5CE783D4370
:1002B000282E02D0482E02D002E0446100E0046102
:1002C000521C082AE5D305600A88FF2A1CD9446815
:1002D000002202F108060EFA06F50E882E40AE4204
:1002E0000ED196000CFA06F7BC4303FA06F7CE7857
:1002F0003C43282E00D14561CE78482E00D10561BF
:10030000521C082AE5D34460F0BD4FF6FF7101800E
:10031000022181700421C17070470246002092685A
:100320000A4200D001207047806880B270470246C0
:100330000020D2680A4200D001207047C06880B215
:10034000704701617047416170470AB101617047B0
:1003500041617047C160704741F4803282618161C0
:100360008261816980697047214B10B51A684FF628
:100370008074224042EA00100843186010BD1D49F5
:10038000C8617047F0B51A4D6B68440D260184B200
:10039000C0F30157B440C0F30342032F05D0C0029D
:1003A0000AD503209040834307E0686823F0706219
:1003B00020F07060686002E0A34343F0706201B116
:1003C00022436A60F0BD10B58A0721F00304084992
:1003D000120F21440F238C6893409C438C608B68E0
:1003E000904003438B6010BD0014014000F8FEBF35
:1003F0000000014000002042A448016841F00101D2
:1004000001604168A24A114041600168A14A11405F
:100410000160016821F480210160416821F4FE013E
:10042000416000218160704798490A6822F4803257
:100430000A600A6822F480220A60B0F5803F07D083
:10044000B0F5802F03D1086840F4A0200860704701
:10045000086840F48030F9E70346002059098B4AC8
:1004600001290AD002290AD0516A03F01F02012390
:1004700093400B4200D0012070471168F5E7116AE4
:10048000F3E718B500204FF4A06400903120FFF787
:10049000E3FF0099491C009108B9A142F6D131202F
:1004A000FFF7DAFF002800D0012018BD774A116855
:1004B00021F0F80141EAC0001060704776490860F9
:1004C0007047724B5A68084322F47C1210435860FC
:1004D00070477149086670476C4A516821F0030102
:1004E0000143516070476948406800F00C00704754
:1004F000664A516821F0F001014351607047634A38
:10050000516821F4E0610143516070475F4A5168CE
:1005100021F4605141EAC000506070475B4A0029F5
:10052000517A01D0014300E08143517270475A492A
:10053000C1F8D8007047554A516821F44041014341
:10054000516070475149002281F8202081F8202015
:10055000012802D0042802D1052081F8200070472C
:100560004E490860704749490A6A02430A62704767
:100570004A4944390860704730B5444A5168484B8D
:1005800011F00C0103D0042901D0082901D0036027
:1005900011E05168022301F4701103EB914153689B
:1005A00013F4803F02D053689B0301D53D4B00E01C
:1005B0003B4B5943016051680F2303EA11113A4B39
:1005C0005C5C0168E14041605468072505EA142439
:1005D0001C5D21FA04F48460546805EAD4241B5D90
:1005E000D940C1605268032303EA92322E4B1B1F8D
:1005F0009A5CB1FBF2F1016130BD244A00295169D6
:1006000001D0014300E08143516170471F4A002936
:10061000916901D0014300E08143916170471B4A19
:100620000029D16901D0014300E08143D1617047C5
:10063000164A0029D16801D0014300E08143D1600E
:100640007047124A0029116901D0014300E081433B
:100650001161704711494039086070470E49C864FC
:1006600070470A49C87170470848416A41F0807173
:1006700041627047054A0146002092680A4200D054
:100680000120704701498872704700000010024045
:100690000000FFF8FFFFF6FE0000424280044242E5
:1006A00000127A0000093D000400002001684FF6A6
:1006B000FE72114001600021016041608160C160F3
:1006C0006A496A4A0839904203D1486840F00F00ED
:1006D00006E0664A1432904204D1486840F0F000C7
:1006E00048607047614A2832904203D1486840F41C
:1006F0007060F5E75D4A3C32904203D1486840F4AF
:100700007040EDE7594A5032904203D1486840F4B6
:100710007020E5E7554A6432904203D1486840F4BE
:100720007000DDE7514A7832904203D1486840F0CA
:100730007060D5E74E4A111F904203D1086840F01F
:100740000F0006E04A4A1432904204D1086840F093
:10075000F00008607047464A2832904203D108688A
:1007600040F47060F5E7424A3C32904203D1086899
:1007700040F47040EDE73E4A50329042EAD10868BA
:1007800040F47020E5E730B5026847F6F0739A430D
:100790000C6A8B682343D1E904452C4323438C69BD
:1007A0002343CC6923434C6A23438C6A234313437A
:1007B0000360CA6842600A6882604968C16030BDEF
:1007C0000021016041608160C1600161416181611E
:1007D000C16101624162816270470029016802D0F3
:1007E00041F0010102E04FF6FE72114001607047D6
:1007F000002A026801D00A4300E08A430260704781
:1008000041607047406880B2704702460020D100C6
:1008100002D51749083901E014490839096811421D
:1008200000D001207047C10003D51149091F08609D
:1008300070470E4908394860704702460020D100D1
:1008400002D50B49083901E0084908390968114205
:1008500000D001207047C10003D50549091F086079
:10086000704702490839486070470000080002409C
:1008700008040240FA4A10B5811A1315D4149042A4
:100880003BD010DCB0F1804F22D0F649401826D082
:1008900098422BD0A04241D101210820FFF7D1FE80
:1008A0000021082036E099422ED0B1F58E3F0DD0C0
:1008B000B1F5923F32D101214C032046FFF7B8FE3B
:1008C0002046BDE810400021FFF7B2BE0121F4E749
:1008D00001210846FFF7B5FE002101201AE00121A1
:1008E0000220FFF7AEFE0021022013E001210420C8
:1008F000FFF7A7FE002104200CE001211020FFF7E4
:10090000A0FE0021102005E001212020FFF799FE24
:1009100000212020BDE81040FFF793BE10BD0288E3
:1009200002F08F020280CA884B881A4303881A4358
:1009300002808A8882850A880285CB4A904202D04A
:10094000CA4A904201D1097A018601218182704709
:1009500030B5028C22F001020284028C8388048B61
:1009600022F0020224F070050C882C430D891543F7
:100970004A882A43CD888586BB4DA84202D0BB4D0C
:10098000A8420DD122F008054A8923F403432A43E3
:1009900022F004058A882A438D891D43CB892B4385
:1009A00083800483028430BD70B5028C22F0100273
:1009B0000284028C8388048B0D8824F4E0464FF671
:1009C000FF7404EA052535430E8922F0200204EA6B
:1009D000061616434A8804EA02123243CE88068776
:1009E000A14EB04202D0A14EB04215D122F08006F5
:1009F0004A8923F40C4304EA0212324322F04006EF
:100A00008A8804EA021232438E89C98904EA86067A
:100A10001E4304EA8103334383800583028470BD4F
:100A200070B5028C22F480720284028C8388848BDD
:100A30000D8824F0700425430E894FF6FF7422F4CC
:100A4000007204EA062616434A8804EA0222324368
:100A5000CE888687844EB04202D0844EB04215D1F3
:100A600022F400664A8923F4304304EA0222324326
:100A700022F480668A8804EA022232438E89C98978
:100A800004EA06161E4304EA011333438380858378
:100A9000028470BD70B5028C22F480520284058CF1
:100AA0008288838B0C8823F4E0464FF6FF7303EAB9
:100AB000042434430E8925F4005503EA06362E43F8
:100AC0004D8803EA05353543CE88A0F84060664E70
:100AD000B04202D0654EB04205D18989C2F30D06FD
:100AE00003EA8112324382808483058470BD828B45
:100AF00022F440628283828B4FF6FF7303EA012166
:100B00000A4382837047828B22F00C028283828B9D
:100B10000A4382837047028B22F440620283028B75
:100B20004FF6FF7303EA01210A4302837047F0B5D1
:100B3000048C24F010040484078B068C4FF6FF7499
:100B400004EA011527F4734704EA0331394304EA40
:100B500002220A4326F02001294341F010010283BA
:100B60000184F0BD028B22F00C020283028B0A4347
:100B7000028370472DE9F0410C46054608884988F4
:100B8000A2882389F8B1042825D00828288C4FF69C
:100B9000FF7628D020F480502884AF8B288C06EA7A
:100BA0000131120227F4734642EA0332324320F441
:100BB0000050084340F48050AA832884E1882846E6
:100BC000BDE8F04193E7284600F0CBFAE1882846DB
:100BD000BDE8F041C6E72846FFF7A9FFE1882846AF
:100BE000BDE8F04197E720F480702884AF8B288C13
:100BF00006EA031327F0F30713433B4306EA0121F8
:100C000020F40070084340F48070AB832884E188AE
:100C10002846BDE8F04176E72DE9F0410C46002674
:100C200049880746012501B90226A288012A00D178
:100C30000225208823890028384619D0FFF777FF3E
:100C4000E1883846FFF767FF23892A463146384650
:100C500000F087FAE1883846BDE8F04182E70000FD
:100C60000010004000FCFFBF002C01400034014098
:100C700000F077FAE1883846FFF774FF23892A46A7
:100C800031463846FFF753FFE1883846BDE8F0416A
:100C900041E710B50A884B88CC881A438B882343D8
:100CA0001A430B891A434B8989891A430A43A0F8CE
:100CB000442010BD4FF6FF71818000210180C1806A
:100CC0004180017270470021018041808180C18094
:100CD000018141818181C181704700210180418072
:100CE00001228280C1800181704700210180418002
:100CF0008180C18001814181818170470029018803
:100D000002D041F0010102E040F2FE3211400180C8
:100D10007047002930F8441F02D041F4004101E03F
:100D2000C1F30E0101807047002A828901D00A4375
:100D300000E08A4382817047818270471143A0F8A6
:100D400048107047002A828901D00A4300E08A4394
:100D500082817047018921F0070101817047028972
:100D600022F070020A430281704700B50346FFF784
:100D7000F6FF188940F00700188100BD70B51646CF
:100D80000D46602904464FF0010231460AD000F0BA
:100D9000E8F929462046FFF7E2FF208940F00700E6
:100DA000208170BDFFF7C3FEF3E710B5048911433E
:100DB0004FF6FF7202EA0322E4B21143214301819C
:100DC00010BD10B50446FFF7F0FF208940F0770012
:100DD000208110BD10B50446FFF7E7FF208940F4DD
:100DE0008040208110BD018582827047028840F2D8
:100DF0008F331A400A430280704770B50589048B0F
:100E0000068C25F007050D434FF6FC410C4040F2DF
:100E100001110C434FF6FF7101EA031126F022067F
:100E20001143314305810483018470BD028B22F09C
:100E300070020A4302837047028B4FF6FF7322F45D
:100E4000E04203EA0121114301837047828B22F0C3
:100E500070020A4382837047828B4FF6FF7322F43D
:100E6000E04203EA01211143818370470029018890
:100E700002D041F0800102E040F27F321140018057
:100E800070470029818802D041F0040101E021F07F
:100E90000401818070470029818802D041F0080157
:100EA00001E021F00801818070470029818802D08B
:100EB00041F0010101E021F0010181807047028BC6
:100EC00022F008020A4302837047028B4FF6FF7339
:100ED00022F4006203EA0121114301837047828BEF
:100EE00022F008020A4382837047828B4FF6FF7319
:100EF00022F4006203EA0121114381837047028BCF
:100F000022F004020A4302837047028B4FF6FF73FC
:100F100022F4806203EA0121114301837047828B2E
:100F200022F004020A4382837047828B4FF6FF73DC
:100F300022F4806203EA0121114381837047028B0E
:100F400022F080020A4302837047028B4FF6FF7340
:100F5000C2F30E0203EA0121114301837047828B21
:100F600022F080020A4382837047828B4FF6FF7320
:100F7000C2F30E0203EA0121114381837047028C00
:100F800022F002020A4302847047028C22F0080217
:100F90000A4302847047028C4FF6FF7322F020024E
:100FA00003EA0111114301847047028C4FF6FF736D
:100FB00022F0800203EA0111114301847047028C80
:100FC0004FF6FF7322F4007203EA012111430184FA
:100FD0007047028C4FF6FF7322F4006203EA01218E
:100FE000114301847047028C4FF6FF7322F40052C4
:100FF00003EA013111430184704710B5038C0124C9
:101000008C40A3430384038C8A401343038410BDA4
:1010100010B5038C04248C40A3430384038C8A40C2
:101020001343038410BD10B5038C01248C40A343EB
:10103000038491B1082910D0091FC1F34E0108445F
:10104000816948F6FF731940816181694FF6FF732A
:1010500003EA02221143816110BD00EB5100816956
:101060004FF68F73194081618169F3E70029018888
:1010700002D041F0020102E040F2FD321140018055
:1010800070470029018802D041F0040102E040F2DB
:10109000FB321140018070470029818802D041F065
:1010A000800101E021F0800181807047028840F2D8
:1010B000F7331A40028002880A4302807047828810
:1010C00022F07002828082880A43828070470289FF
:1010D00022F00702028102890A43028170470289D5
:1010E00022F08002028102890A43028170478184D2
:1010F0007047818570478186704701877047818777
:101100007047A0F8401070470288D2B2028002886F
:101110000A4302807047808E7047008F7047808F2F
:101120007047B0F840007047808C7047008D704762
:1011300002460020128A0A4200D001207047C943AB
:101140000182704702460020138A92890B4202EA0C
:10115000010202D0002A00D001207047C943018259
:10116000704770B5048C24F001040484058B048C52
:101170004FF6FF7606EA0313134325F0F3052B43DE
:1011800024F002020A4342F001010383018470BD8E
:101190002849084328490860704730B50F23C278B2
:1011A00001780125F2B1244A126801F1E02102F42C
:1011B000E062C2F5E062120AC2F10404D340427850
:1011C000A24084781C401443220181F80024007856
:1011D00000F01F018D404009800000F1E020C0F8C0
:1011E000005130BD01F01F0085404809800000F12A
:1011F000E020C0F8805130BD104A114001430E4834
:10120000001F016070470C4A121D0029116801D0AF
:10121000014300E08143116070474FF0E021042852
:10122000086903D020F004000861704740F0040012
:10123000FAE700000000FA050CED00E080FFFF1F58
:10124000B24A10B5811A131590421BD007DCB04981
:10125000401814D0984223D10121040217E099428A
:1012600013D0B1F56C4F1BD101218C032046FFF741
:10127000DFF92046BDE810400021FFF7D9B9012170
:101280004C0404E00121CC0401E001210C052046BE
:10129000FFF7D7F92046BDE810400021FFF7D1B98C
:1012A00010BD30B50446008A85B00D464CF6FF717E
:1012B0000840E98801432182A0894EF6F3110840D5
:1012C000A9882A8911436A8902431143A181A08A0E
:1012D0004FF6FF410840A9890143A1826846FFF704
:1012E0004BF98C48844201D1039800E002986422B3
:1012F00000EBC00101EB001029686FF018058900B0
:10130000B0FBF1F0B0FBF2F109010B096B4300EB0C
:101310008300322303EB0010B0FBF2F000F00F006B
:101320000843208105B030BD4FF416510160002103
:101330008180C18001810C2242818181704710B57A
:10134000028A4FF2FF031A400B884C8823438C8893
:10135000C9880C4323431343038210BD002101803D
:1013600041808180C18070470029818902D041F489
:10137000005101E021F400518181704710B5C1F3A3
:10138000421301F01F040121A140012B07D0022BC1
:1013900007D01430002A026805D00A4304E00C305C
:1013A000F8E71030F6E78A43026010BD002A828A0F
:1013B00001D00A4300E08A4382827047028A22F009
:1013C0000F020282028A0A4302827047828922F453
:1013D0000062828182890A43828170470029818963
:1013E00002D041F0020101E021F002018181704749
:1013F000028A22F020020282028A0A430282704795
:101400000029018A02D041F4804101E021F48041A9
:1014100001827047C1F30801818070478088C0F362
:1014200008007047818941F0010181817047028B7A
:10143000D2B20283028B42EA012101837047028B00
:1014400002F47F420283028B0A4302837047002921
:10145000818A02D041F0200101E021F02001818247
:1014600070470029818A02D041F0100101E021F08B
:101470001001818270470029818A02D041F0080161
:1014800001E021F0080181827047828A22F0040283
:101490008282828A0A43828270470029818A02D02E
:1014A00041F0020101E021F0020181827047024611
:1014B000002012880A4200D001207047C9430180F1
:1014C000704770B501F01F0501260024C1F34213D7
:1014D00006FA05F2012B0FD0022B0FD0838A4FEAB8
:1014E00011210088134206FA01F600EA060001D035
:1014F00000B10124204670BD8389F0E7038AEEE73E
:101500000A0A01219140C94301807047004C004004
:1015100000BCFFBF003801400CB5002232480092E9
:101520000192016841F4803101604FF4A0630168C9
:1015300001F4003101910099491C0091019911B900
:1015400000999942F3D10168890333D501210191B2
:1015500026490A6842F010020A600A6822F0030273
:101560000A600A6842F002020A604168416041680C
:101570004160416841F480614160416821F47C111F
:101580004160416841F4E8114160016841F08071B7
:10159000016001688901FCD5416821F003014160C7
:1015A000416841F0020141604168C1F381010229B3
:1015B000FAD10CBD0192FEE70B48016841F0010130
:1015C000016041680A4A114041600168094A1140BE
:1015D0000160016821F480210160416821F4FE016D
:1015E00041600021816097E7001002400020024026
:1015F0000000FFF8FFFFF6FE10B5FFF7DDFF4FF428
:10160000A060FFF7C5FD00F043F900F08AF9BDE8DE
:10161000104000F01DB80C484FF47A710068B0FB20
:10162000F1F0B0F1807F0DD220F07F414FF0E0204B
:10163000491E4161054AF02182F8141D0021816193
:101640000721016170470000C44800080FE000E076
:10165000F8B501210920FEF7D9FF01210420FEF78A
:10166000DEFF864C84492046FEF701FE8249204673
:10167000091DFEF7FCFD8049814C60312046FFF7D3
:101680004EF908212046FFF71AFC7B4920466A31B3
:10169000FFF75EF908212046FFF717FC7649204640
:1016A0006A31FFF781F901210846FEF7A6FF72496A
:1016B000744D08312846FFF766F8724E6E493C3685
:1016C00034313046FFF75FF8012251022046FFF720
:1016D00039FB012291022046FFF734FB01220A2147
:1016E0002846FFF785F801220A213046FFF780F8E7
:1016F0000E208DF8000003208DF8010002208DF8E7
:10170000020001208DF803006846FFF746FD6114D2
:101710005D48FEF718FEF8BD70B5594E044601212C
:101720003046FFF7EBFA40F22511B5157CB1554C68
:101730003C342046FFF764F801212046FFF74DF8BE
:1017400029463046BDE870400122FFF7FBBA4D4CF8
:10175000EFE7F0B587B00E4607461C461546182140
:10176000684603F082F800206A4605FA00F109068F
:1017700001D53C2100E01E211154401CC0B20828B4
:10178000F3D3002006FA00F1090601D53C2100E060
:101790001E211318401CC0B219720828F2D3002071
:1017A00004FA00F1090601D53C2100E01E211318BE
:1017B000401CC0B219740828F2D3344B002007EB48
:1017C000470100EBC1051D44145C85F83240401C04
:1017D000C0B21828F5D307B0F0BD2DE9F0411E4680
:1017E000174688460546002406E0E0B233463A46EE
:1017F0004146FFF7AEFF641CAC42F6D3BDE8F08172
:1018000010B500F074FB1E4C00212046FFF776FA5D
:101810000022A1152046FFF795FA00211948FEF78E
:10182000DCFF0220FEF7FFFF40F22511174803F00E
:101830001CF8BDE8104000F064BB10B500F057FB89
:101840000F4C00212046FFF759FA0022A11520462F
:10185000FFF778FA0B4800213C30FEF7BEFF60141A
:10186000FEF7E1FF40F22511084802F0FEFFBDE857
:10187000104000F046BB000014000020000C0140A6
:10188000000800400800024000100140340200201F
:1018900038B501211020FEF7B9FE4FF40054ADF821
:1018A000004010208DF803000320064D8DF8020043
:1018B00069462846FEF7DBFC21462846FEF741FD37
:1018C00038BD00000010014010B501218CB0084661
:1018D000FEF793FE6C4C00212046FEF77EFF20466B
:1018E000FEF7E4FE6948009069480021CDE9010156
:1018F000C820CDE903018020CDE905014FF4405017
:10190000CDE9081007910A9169462046FEF73BFF92
:10191000A015FEF788FF01212046FEF75EFF0CB000
:1019200010BD30B587B0C821594802F09EFF012193
:101930001020FEF76BFE01218804FEF770FE2720C1
:101940008DF8140002208DF8150000248DF8164043
:1019500001208DF8170005A8FFF71FFC01214D4855
:10196000FEF710FD48208DF813004FF400604A4D3B
:10197000ADF8100004A92846FEF779FC03218DF884
:10198000121018218DF813102815ADF8100004A9B5
:101990002846FEF76CFCFFF797FFADF80840ADF85E
:1019A0000440ADF80640ADF80C400C20ADF80A003C
:1019B000364C4FF4E130241F009069462046FFF773
:1019C00070FC012240F224412046FFF7D7FC0121A0
:1019D0002046FFF7C9FC012280212046FFF7E6FCE4
:1019E000012240212046FFF7E1FC07B030BD264927
:1019F00030390862244801211438FEF7EEBE10B5D4
:101A00001020FEF710FF204800211438FEF7E5FEF5
:101A100022480088BDE8104080B2E8E710B52020D9
:101A2000FEF70BFF002802D0BDE81040E7E710BD2D
:101A300010B5154C00212046FEF7CFFEA015FEF78D
:101A4000F2FE2046FEF7DEFE1449C0F1C800086031
:101A50000D49C820303948632046BDE810400121B7
:101A6000FEF7BBBE10B5094C40F22441241F2046AE
:101A7000FFF727FD002806D0FFF7DAFF2046BDE874
:101A80001040FFF7CBBC10BD3000024004480040BE
:101A900059030020100014000010014090000020A5
:101AA00008B5FFF7B8FD00253C232C462E461A4604
:101AB00019460820FFF791FE0120FFF72DFE534F36
:101AC000DFF84C816A460021D8F8000001F039F9AE
:101AD00078790D2865D1B8790A2862D1387928BB80
:101AE000BB787A7839780820FFF777FE0120FFF776
:101AF00013FEF878D0B1F97840F2E739B9FBF1F389
:101B000000221146104602F07AFA00231A461946BE
:101B10000820FFF762FE0120FFF7FEFDF9780022A2
:101B2000B9FBF1F31146104602F069FA3879012841
:101B300003D03879022820D033E06EB1641FE4B2BC
:101B400023461A4611460820FFF747FE0120FFF7FB
:101B5000E3FD0A2C0FD01EE0641DE4B223461A46B2
:101B600011460820FFF739FE0120FFF7D5FD5F2C55
:101B700011D101260FE000260DE01EB36D1FEDB25E
:101B80002B461A4611460820FFF727FE0120FFF7D3
:101B9000C3FD0A2DEFD00022C8231146104602F0E3
:101BA0002EFA00220A231146104602F028FAD8F82D
:101BB000000001F0B1F900220A231146104602F09C
:101BC0001EFA7FE76D1DEDB22B461A46114608201E
:101BD000FFF703FE0120FFF79FFD5F2DC9D0DAE775
:101BE00008B569461A2000F0C0FF09490860FFF7F0
:101BF00012FD00F00FFA1723064A0021AFF25F1022
:101C000001F0F8FE152002F051F908BD590300203B
:101C10009400002060050020002204E0521C00F81F
:101C2000013BD2B2491C0B78002BF7D10021017087
:101C3000104670472DE9F0410E460546140006D0C7
:101C400045B14EB1FE48807840B1112010E000202F
:101C5000BDE8F08104200BE00C2009E02878012881
:101C600008D0022806D0032804D0042802D001207E
:101C70001070ECE702F04EFD074605F10F0130460B
:101C8000FFF7CAFF0546384602F048FD00202070E5
:101C90002846DDE70146002002E0401CC0B2491C96
:101CA0000A78002AF9D170472DE9F0410E46054621
:101CB0001400CDD02DB136B1E148807828B1122082
:101CC0000DE004200BE00C2009E02878012808D062
:101CD000022806D0032804D0042802D00120107066
:101CE000B6E702F017FD07463046FFF7D3FF0F288F
:101CF00004D9384602F012FD0B2008E0314605F108
:101D00000F00FFF789FF384602F008FD0020207021
:101D10009EE77CB5CB4D00246946204602F087F84B
:101D200058B955F8241041B1012906D0D1E9020271
:101D300000EB8200086401984864641CE4B21F2C24
:101D4000EAD97CBDBE4C02E0C82002F033F96078CD
:101D50000028F9D0642160690025B0FBF1F06061D2
:101D600018B92570FF2002F0A1F802F0D3FC216A17
:101D70002562A16102F0D2FCD4E90510B0FBF1F0BC
:101D8000C0F16400207002F01FFDFFF7C2FF642065
:101D900002F010F9E9E7AA4C02F0BCFC216A491CE8
:101DA000216202F0BBFC02F00EFDF5E7002203E029
:101DB000491E00F8012B89B20029F9D1704770B58E
:101DC00086B002F0F9FC9E4B00245C639C70DC70D2
:101DD0001C72DC71DC601C629C615C615C709C71DB
:101DE00003F11C012046401CC0B201F8014B04283D
:101DF000F9D31C715C719348DC624FF4C66180308A
:101E00005C62FFF7D3FF80218E48FFF7CFFF8D483C
:101E10000022803000F158013F25416180F8485090
:101E200080F84940521CD2B258305831112AF4D3AC
:101E3000446180F8485080F8494082481C638030F3
:101E400098624FF4A071A0F5B860FFF7AFFF7E482D
:101E5000002200F1200100F8044B521C40F80B1B3B
:101E600092B200F8015B203100F8104B092AF2D33E
:101E700004704460C57304747348186100F00FFD6A
:101E800000F014FE01F06BFB80267048CDE90106DE
:101E90006C4A03254FF6FF701F23121F002100908C
:101EA000AFF20D10CDE9034501F0F1FD05AA68A1DF
:101EB0001F2001F03BFF6A48CDE90106634A4FF657
:101EC000FE701E23121F00210090AFF28710CDE993
:101ED000034501F0DCFD05AA62A11E2001F026FFEA
:101EE00002F084FB06B0BDE8704002F069BC5449C2
:101EF000C879012804D18878FF2801D2401C887055
:101F0000704770B54E4CE079012822D102F002FCF6
:101F10000546A07820B1401E10F0FF00A07013D13C
:101F2000E07888B900F0D8F96079217988420BD03F
:101F3000444951F82010E162486B401C4863E06856
:101F4000401CE06002F002FC2846BDE8704002F050
:101F5000E5BB70BD10B53A4CE07901280CD102F018
:101F6000D9FBA17821B9E178FF2901D2491CE170A0
:101F7000BDE8104002F0D2BB10BD70B502F0CAFB44
:101F80002F4C0546A07898B9E07888B900F0A4F9FC
:101F90006079217988420BD02A4951F82010E162FA
:101FA000486B401C4863E068401CE06002F0C9FBDD
:101FB0002846BDE8704002F0B1BB10B5204CE07976
:101FC000012813D102F0A6FBE17831B1491E11F0CE
:101FD000FF01E17001D1A17819B1BDE8104002F014
:101FE0009DBB02F09BFBBDE81040C6E710BD10B5DD
:101FF000134CE07900280CD100F06EF9607911499A
:10200000207151F82000E0626062BDE8104002F0EB
:1020100088BB10BD10B5022001F0CCFF02F07AFBA6
:10202000074C0021216202F079FB642001F0C2FF1D
:1020300002F070FB216A6161012161701AE0000009
:1020400098000020A40A002064050020A4080020B5
:1020500075432F4F532D49492049646C650000009A
:10206000A406002075432F4F532D49492053746116
:1020700074000000BDE8104002F050BB2DE9F041B3
:1020800002F0DEFB02F046FB994D696B491C696367
:1020900002F044FBE87901283DD1687A0126002747
:1020A00020B1012837D0022802D06F722C6B2EE0AD
:1020B0006E72FBE702F02EFB618D29B3491E090405
:1020C000090C618520D194F82C1011F0370F06D03F
:1020D00021F0370184F82C1084F82D6001E084F899
:1020E0002D7094F82C1009070ED494F83210AA79A8
:1020F0007F4B1143A97194F830101C3394F831C010
:102100005A5C42EA0C025A54646902F007FB94F8E4
:102110002E001F28CED19BE54FF48F70704770477B
:1021200010B590F8302090F831408B18DA7AA2433D
:10213000DA7204D18A7A90F8320082438A7210BD32
:10214000F0B50E460146847A6A480027045D0D19F1
:10215000ED7A405D00EBC400C5B2674850F8250039
:102160004785066290F82C60964380F82C6080F8D2
:102170002D3032070BD45E4A90F8323096793343D3
:1021800093711C3290F83160135D33431355FFF7A0
:10219000C7FF2846F0BD30B5554C00F10B02616A0F
:1021A00041F81C0F0B7D497D9D5C0D439D54616A78
:1021B000827A91F832301A43827291F8300004F139
:1021C0001C0391F831501A5CAA431A5404D191F8B7
:1021D0003210A0798843A07130BD0022827211466E
:1021E0000B30491CC9B200F8012B0429F9D3704700
:1021F00005E011F8013B521E00F8013B92B2002AA3
:10220000F7D170472DE9F05F9846DDE90ABA9146AB
:102210000D46064602F07EFA354FBC6A002C57D0B8
:1022200054F8141FB96202F079FA44F8145CA676E7
:10223000002525766576E58244F808BC44E904A9C2
:102240000C9824F8040C24F8028CF008E577207729
:10225000012306F0070103FA00F2E176A27703FA00
:1022600001F26277A5602561E5602562A56265627D
:10227000E5623F20256384F8340084F83550143C2F
:10228000204602F0DCFA204602F09BFA02F042FA05
:102290000146194840F82640386BC4E9050500B1ED
:1022A00084613C6394F83200BA791043B871104AE3
:1022B00014F8300F1C326478135C23431354387ABB
:1022C000401C3872084602F029FA0020BDE8F09F51
:1022D00002F024FA4220F9E70549064A01F11C03FD
:1022E0008879105C1B5CD25C02EBC00048717047BF
:1022F00098000020C8480008A40A00202DE9F041F9
:102300000F4605461E00144605D03DB12878052825
:1023100006D0012018700020BDE8F0816E20F9E79A
:1023200014F0800002D022F08004012080460020BA
:10233000307002F0EFF97022FCB1012C23D0022C96
:1023400008D0032C11D002F0E9F900246F2030707E
:102350002046E1E72C8921463C40BC4209D01CE0E4
:10236000A14318E002F0DAF9F2E72C8921463C405B
:1023700013D0B8F1000FF5D0F2E7298927EA01045C
:10238000BC4204D009E0298937EA010405D0B8F13C
:10239000000FE7D021432981E4E73270E2E770B50E
:1023A00006460D0004D0F848007818B110200870D7
:1023B000002070BD02F0AEF9F4490C686CB162689F
:1023C0000A6005212170268100263F216660A172E6
:1023D000E67202F0A3F92E7003E002F09FF972207A
:1023E0002870204670BDD0E9001200232AB1116088
:1023F00001B14A60806843627047C2680029516039
:10240000F8D04B60F6E710B502468068002343859C
:10241000018590F82C1031F0200180F82C1080F804
:102420002D3005D000241046FFF7DDFF204610BDFB
:10243000D74990F832300C7823430B7010F8301FD6
:10244000D44B40785C5C04435C540124EBE72DE9F9
:10245000F05F88461500044629D02CB1CA480078A0
:1024600020B10F20107021E06E20FBE720780528B6
:1024700001D00120F6E702F04DF9666881460EB101
:10248000012700E00027DFF804B34FF0000AB8F19D
:10249000000F06D0B8F1010F22D002F03FF907205B
:1024A00003E037B102F03AF9492028702046BDE830
:1024B000F09F3F20A07284F80BA084F800A0DBF806
:1024C00000106160A4F808A056464846CBF80040CA
:1024D00002F024F91AE000213046FFF794FF366835
:1024E000002EF8D13F20A07284F80BA084F800A041
:1024F000DBF800106160A4F808A056464846CBF807
:10250000004002F00BF90FB1FFF737FD2E700020ED
:10251000CDE72DE9F0410F460546140016D02DB148
:1025200037B19948007830B1112002E06E2000E008
:102530000C2010700AE002F0EDF806462878052815
:1025400006D0304602F0EAF8012020700020E3E6D1
:1025500005F10A013846FFF75FFB0546304602F0F9
:10256000DDF8002020702846D6E62DE9F0410F4620
:102570000546140006D035B13FB18348007830B12C
:1025800012201070C8E66E20FBE70C20F9E702F07D
:10259000C1F806462878052804D0304602F0BEF877
:1025A000012012E03846FFF775FB0F2804D93046AA
:1025B00002F0B4F8732008E0394605F10A00FFF78D
:1025C0002BFB304602F0AAF800202070A4E6F0B5FC
:1025D000714D059E2C6894F82C7047F0200784F804
:1025E0002C70002784F82D70668561620A828B74D6
:1025F0008C604268C860C1E90027426802B151603E
:1026000041602868634B90F8301090F831405A5C74
:10261000A2435A5405D15E4990F83220087890437D
:102620000870F0BD2DE9F04F87B09A46109D914695
:102630000F4604462DB144B15348007838B102200A
:1026400092E0002007B0BDE8F08F6E208CE0534888
:10265000007808B10D2087E02078052801D00120FE
:1026600082E019F0800F03D029F08009012600E0F4
:10267000002602F04FF806905FEA09004FF0000BC9
:102680001CD001282ED0022808D0B9F1030F0ED09B
:10269000069802F043F800206F2153E0208900EAF9
:1026A0000708B84524D196B120EA08000EE0208939
:1026B00000EA07015FEA0108F5D119E0208927EA5D
:1026C0000008B84514D116B140EA0800208132490B
:1026D0000968A1F82880069802F020F885F800B073
:1026E0004046AFE7208927EA00015FEA0108EAD106
:1026F0004B463A4601A92046CDF800A0FFF767FFF8
:10270000069802F00BF8FFF738FC02F003F8DFF848
:1027100088808446D8F8000090F82D70A7B180F822
:102720002DB05C4601A8FFF75EFED8F8000080F8E7
:102730002C40604601F0F2FF0020022F01D00A2158
:1027400000E00E2129707DE7078DAEB15FEA090038
:102750000FD001280DD0022808D0B9F1030F05D001
:10276000604601F0DBFF6F2028706AE72089B843DC
:1027700001E0208938432081604601F0CFFF85F8D1
:1027800000B038465EE700009A000020D00000202C
:102790009E000020B4000020BC0000209B00002010
:1027A00010B501F0B7FF4E4909680C8D01F0B6FF76
:1027B000204610BD2DE9F04114460E4605461F0087
:1027C00028D02DB12878052804D00120187021E0E8
:1027D0006E20FBE701F09EFF80462CB1012C06D055
:1027E00001F09CFF712014E02889B04301E02889A2
:1027F0003043288100266C6828E0A07CA0B1012825
:1028000019D0022808D003280AD0404601F086FFDC
:102810006F20387000207FE52989208A014007E079
:102820002989208A014009E0218A2A8908469143A2
:10283000884204D009E0218A2889814329B12046B1
:10284000FFF7E1FD012800D101262468002CD4D136
:10285000404601F063FF012E01D1FFF78EFB01F02E
:1028600059FF2C8901F05AFF00203870204653E5AB
:1028700070B505460C0005D035B12878052805D07F
:1028800001200870002070BD6E20FAE701F042FFC1
:102890002D8901F043FF00202070284670BD10B53F
:1028A0008C211048FFF782FA0E48002200F11C012B
:1028B00013463F2400F8043B521C40F8061B92B21A
:1028C00000F8014B1C3100F8113B042AF2D30370CD
:1028D000436084720449C3720248086010BD00005E
:1028E000BC00002054110020D00000202DE9F04150
:1028F0001746884606461D0020D062200EB1B1075B
:1029000001D018701AE0B8F1020F01D25B20F8E78D
:10291000042F01D25C20F4E701F0FCFE72490C6840
:102920000CB162680A6001F0F9FE2CB1F019324670
:102930000021A8F1010308E05A2028700020BDE81A
:10294000F081106002463844491C9942F9D30020B6
:1029500010602660C4F810806660C4E902782870B0
:102960002046ECE770B504460D0016D074B101F0B6
:10297000D1FE216969B16668491E326862602161D1
:1029800001F0CCFE00202870304670BD6020087039
:1029900003E001F0C3FE5D202870002070BD2DE92A
:1029A000F0410E460546140006D03DB146B14F48F1
:1029B000007838B1112010700020C0E76020FAE7DD
:1029C0000C20F8E701F0A6FE074605F11401304699
:1029D000FFF722F90546384601F0A0FE00202070DE
:1029E0002846ACE72DE9F0410E4605461400A6D076
:1029F00035B13EB13D48007830B1122010709EE7ED
:102A00006020FBE70C20F9E701F084FE0746304622
:102A1000FFF740F90F2804D9384601F07FFE632004
:102A200008E0314605F11400FFF7F6F8384601F0EA
:102A300075FE0020207082E770B50D4604000AD0B4
:102A40005DB101F067FED4E903128A4207D301F0B9
:102A500065FE5E2070BD602070BD5F2070BD616846
:102A6000296065602169491C216101F057FE002041
:102A700070BD70B50C46050014D0ACB101F04AFE33
:102A80002968216069686160A968A160E968E160FE
:102A90002969216101F042FED4E90301401A606115
:102AA000002070BD602070BD612070BD70B5B42184
:102AB0000F48FFF77BF90E4800210B4604463F25DF
:102AC00001EBC10204EB82022432426005754375BA
:102AD000491C89B224300429F2D34360057543753B
:102AE0000148046070BD0000D40000209A0000205E
:102AF000E01100202DE9F04105460C001AD02DB15F
:102B00002878042804D00120087013E00420FBE793
:102B1000FA48007808B10220F6E701F0FBFD2989A8
:102B20004FF000060B0ACA4312F0FF0F05D001F068
:102B3000F5FD26700020BDE8F08101F47F42F049E8
:102B40002A81096891F82E703A432A81696091F8C8
:102B50002E10994204D801F0E1FD7820207002E0A7
:102B600001F0DCFD26700120E5E72DE9F041064685
:102B70000D0013D01F2E01D32A2003E0DF48007878
:102B800010B11020087009E001F0C4FDDD4A52F8D0
:102B9000261029B101F0C2FD282028700020CAE7C4
:102BA000012142F82610D8494FF0000804270C688C
:102BB000ACB162680A6001F0B1FDFF2040EA062076
:102BC000277020813F20C4F80480E073464684F8D3
:102BD00010802046FFF701FB2E702046ABE74446ED
:102BE00042F8268001F09AFD2F70F6E7F0B590F8D4
:102BF0003020C64D90F83140C54EAB5CA343AB547A
:102C000004D190F8323032789A433270C1F3C20264
:102C100080F82E1001F00707012380F8302003FA16
:102C200002F480F82F7080F83240BB4080F83130D9
:102C300037783C433470AC5C1C43AC54B14A42F826
:102C40002100F0BD2DE9F05F8846150004462ED026
:102C50002CB12078042804D00120107026E0042034
:102C6000FBE7A648007808B10F20F6E701F052FD17
:102C70000746A07A08B1012600E000265FEA0800B6
:102C8000DFF88092DFF880A24FF03F084FF0000B92
:102C900006D0012824D0384601F040FD072004E08A
:102CA0003EB1384601F03AFD492028702046BDE883
:102CB000F09F84F80F8084F810B020895E46000AE7
:102CC00049F820B084F800B0DAF800106160A4F888
:102CD00008B03846CAF8004001F020FD2E702EE002
:102CE0002089020AC1B2606860B190F82E30934228
:102CF00008D1FFF77BFF05E000231022194620468C
:102D0000FFF71EFAA07A0028F6D184F80F8084F825
:102D100010B02189D846090A384649F821B084F80C
:102D200000B0DAF800206260A4F808B0CAF80040E9
:102D300001F0F4FC0EB1FFF720F985F800800020C7
:102D4000B5E72DE9F74F1400054607D045B12878BF
:102D50004FF0010B042805D082F800B0BDE8FE8FCB
:102D6000042008E06548007808B1022003E06948C3
:102D7000007810B10D201070F0E701F0CBFC29892C
:102D80000646080ACA43DFF8789112F0FF0F1CD0FC
:102D90006B68C9B293F82E2082427CD9D9F8002002
:102DA00092F82E208A4276D293F83020DFF85CA188
:102DB00093F83170DFF858E11AF80210394225D043
:102DC000B9430AF8021018D01EE001F47F422A81AC
:102DD000D9F8001091F82E301A432A81696091F8D1
:102DE0002E108142304603D801F098FC782002E092
:102DF00001F094FC00202070B0E793F832709EF848
:102E00000020BA438EF80020012710E0D96969B18B
:102E100001F10B0C12F80C8038EA070802F80C805C
:102E200004D18A7A93F83270BA438A720027C108B3
:102E300083F82E0000F0070C83F8301083F82FC0C1
:102E40000BFA01F2D2B20BFA0CF883F8322008F038
:102E5000FF0C83F831C067B19EF8008042EA080297
:102E60008EF800201AF8012042EA0C020AF801202C
:102E70000EE0D96961B111F80A7F174301F8017BAF
:102E800093F8302093F831C0575C47EA0C07575449
:102E90001C4941F82030D9F80000002710F82C1FF9
:102EA00041F0100100F80219C7700199018028460D
:102EB000FFF771F9304601F031FCFFF75EF801F0E1
:102EC00029FC0646D9F8000090F82D1031B10229EE
:102ED00006D02946FFF724F90A2002E0277001E016
:102EE0000E202070D9F8000080F82C7080F82D702A
:102EF000C7613046BDE8FE4F01F010BC9A000020CB
:102F0000BC000020A40A0020A8000020B40000207B
:102F10009E0000209B0000202DE9F041044641481E
:102F2000007808B1052006E624B12078042803D0F3
:102F3000012000E60420FEE501F0ECFB06462089B6
:102F40006268050AC1B238480068824204D030463F
:102F500001F0E4FB6420EEE590F82E20AA4201D1B6
:102F6000FFF744FE314F012047F82500A07AE0B179
:102F70000023102219462046FFF7E2F8218901F4C8
:102F80007F410143218157F82010A84261603046FB
:102F900005D801F0C3FBFEF7F0FF7820CBE501F088
:102FA000BDFBFEF7EAFF0020C5E5208940F0FF00E9
:102FB000208100206060304601F0B0FBF3E770B57F
:102FC000044618480D46007808B1062070BD2CB1A3
:102FD00035B12078042805D0012070BD042070BDD3
:102FE000092070BD01F096FB01462089000AE871B6
:102FF000207AA871FF2812D000206871A07A287169
:1030000000200B34401C14F8012BC0B205F8012B32
:103010000428F7D3084601F081FB002070BD012091
:10302000EBE700009A000020BC000020A40A00206A
:1030300070B505460C0005D035B12878022805D0BA
:1030400001200870002070BD0420FAE701F062FB47
:103050006A680346D08A70B11169081D10610D6855
:10306000D18A491ED1829168884201D1506810618D
:103070000020207002E01F2020700025184601F07B
:103080004DFB284670BD2DE9F0410646FC488846B8
:10309000007810B10020BDE8F08101F03BFBF94F52
:1030A0003C680CB16168396001F038FB1CB301F079
:1030B00031FBF5490D68C5B12A680A6001F02EFBA5
:1030C00006EB8800C5E90160EE602E61A5F814806A
:1030D0000020E8820221217020813F216560E17398
:1030E00020742046FFF779F805E0396861603C609C
:1030F00001F014FB00242046CDE72DE9F05F88465F
:10310000150004462ED02CB12078022804D00120CE
:10311000107026E00420FBE7D948007808B10F20A2
:10312000F6E701F0F7FA0746A07A08B1012600E0B9
:1031300000265FEA0800DFF85093DFF848A34FF05D
:103140003F084FF0000B06D001282CD0384601F084
:10315000E5FA072004E03EB1384601F0DFFA4920E5
:1031600028702046BDE8F09F84F80F8084F810B0E6
:103170006068D9F800205E460260C9F8000084F853
:1031800000B0DAF800106160A4F808B03846CAF858
:10319000004001F0C3FA2E7024E0002304221946F7
:1031A0002046FEF7CDFFA07A0028F6D184F80F80E4
:1031B00084F810B06068D9F80030D8460360C9F8C8
:1031C000000084F800B0DAF800206260A4F808B0CB
:1031D0003846CAF8004001F0A1FA0EB1FEF7CDFE64
:1031E00085F800800020BDE710B5040004D02078E9
:1031F000022803D0012010BD042010BD01F08AFA7E
:10320000014660684268C26002610022C2820846CC
:1032100001F084FA002010BD2DE9F04789460546EB
:10322000140005D03DB12878022806D001200DE019
:103230000020BDE8F087042008E09148007808B13C
:10324000022003E09148007810B10D201070EFE7E4
:1032500001F060FA064668680027C18A81B10269F8
:10326000111D01611568C28A521EC2828268914294
:1032700001D141680161304601F050FA277035E014
:10328000DFF80C82D8F8000010F82C1F41F0040180
:103290000170477020F8029C2846FEF77CFF3046FC
:1032A00001F03CFAFEF769FE01F034FA0646D8F860
:1032B000000090F82D1039B1022908D02946FEF7F8
:1032C0002FFF00250A2004E0056A277002E0002590
:1032D0000E202070D8F8000080F82C7080F82D7037
:1032E00040F81C7F4760304601F018FA2846A0E7F6
:1032F0002DE9F0410F460646150031D02EB1317848
:103300000120022903D010702AE00420FBE701F01D
:1033100001FA8046B07AF0B10024012F0FD00223C9
:10332000042200213046FEF70BFF0124404601F045
:10333000F5F9FEF722FE0E2028702046ABE60223A8
:10334000042200213046FEF7FBFE641CB07AE4B292
:103350000028F4D1EAE7404601F0E0F900202870A7
:10336000002098E670B50E46040004D020780228AC
:1033700003D0012070BD042070BD01F0CBF90546DB
:10338000A07A58B10023042231462046FEF7D8FE29
:10339000284601F0C3F9FEF7F0FD19E06068C18A24
:1033A000828A914204D3284601F0B8F91E2070BDEC
:1033B000C1680A1DC2600E60C18A491CC182D0E981
:1033C00002128A4201D14168C160284601F0A6F983
:1033D000002070BD70B50E46040004D0207802288D
:1033E00003D0012070BD042070BD01F093F90546A3
:1033F000A07A58B10023042231462046FEF7A0FEF1
:10340000284601F08BF9FEF7B8FD18E06068C18A24
:10341000828A914204D3284601F080F91E2070BDB3
:1034200042680169914201D181680161091F01610E
:103430000E60C18A491CC182284601F06FF9002044
:1034400070BD2DE9F04114460D46070004D03878D0
:10345000022803D001201EE604201CE601F05AF9E0
:103460000646B87A28B3E00714D000230422294680
:103470003846FEF765FEB87A0028F6D110E0000065
:103480009A000020A8000020D80000209B00002007
:10349000BC0000200023042229463846FEF750FED7
:1034A000304601F03BF9600701D4FEF766FD0020CD
:1034B000F1E57B68D88A998A884204D3304601F0C6
:1034C0002DF91E20E7E5A00709D55968186988423B
:1034D00001D198681861001F1861056009E0D8687B
:1034E000011DD9600560D3E90201814201D158680C
:1034F000D860D88A401CD882304601F00FF9D6E750
:1035000070B50C46060005D034B13078022805D0DD
:10351000012070BD042070BD092070BD01F0FAF8D3
:103520000246B07A207306F10B0504F10801002071
:10353000401C15F8013BC0B201F8013B0428F7D349
:103540007068C18A09B1016909682160C18AA180D6
:10355000808AE080104601F0E1F8002070BD10B5CF
:1035600060210A48FEF722FC0848002200F11801F9
:1035700040F8181B521C92B21831032AF8D30021CC
:10358000016003490148086010BD0000941200204A
:10359000D800002070B5040002D02078032801D0A4
:1035A000002070BD01F0B6F825890DB1691E21819A
:1035B00001F0B4F8284670BD70B50546C4480078DF
:1035C00008B1002070BD01F0A5F8C2490C680CB12B
:1035D00062680A6001F0A2F854B1032020702581CE
:1035E00000203F216060E17320742046FEF7F5FD66
:1035F000204670BD2DE9F0478846150004462CD0C2
:103600002CB12078032804D00120107024E004207D
:10361000FBE7AF48007808B10F20F6E701F07AF831
:103620000746A07A08B1012600E000265FEA0800FC
:10363000DFF8A0924FF03F084FF0000A06D00128B3
:1036400026D0384601F06AF8072004E03EB138463B
:1036500001F064F8492028702046BDE8F08784F81E
:103660000F8084F810A084F800A0D9F800106160E1
:10367000A4F808A056463846C9F8004001F04EF8B4
:103680002E701EE00023012219462046FEF758FD49
:10369000A07A0028F6D184F80F8084F810A084F86E
:1036A00000A0D9F800206260A4F808A0D0463846EF
:1036B000C9F8004001F032F80EB1FEF75EFC85F863
:1036C00000800020C9E72DE9F0478946054614002F
:1036D000C3D025B12878032803D001200AE00420B4
:1036E00008E07B48007808B1022003E07A480078BF
:1036F00010B10D201070B0E701F00CF806462889D3
:10370000002730B1401E2881304601F007F82770AD
:10371000A3E7DFF8C881D8F8000010F82C1F41F0AB
:1037200001010170477020F8029C2846FEF733FD26
:10373000304600F0F3FFFEF720FC00F0EBFF0646FA
:10374000D8F8000090F82D1031B1022906D0294692
:10375000FEF7E6FC0A2002E0277001E00E20207050
:10376000D8F8000080F82C7080F82D70C7613046C2
:10377000BDE8F04700F0D2BF2DE9F0410F46064604
:10378000150032D02EB131780120032903D01070FA
:103790002BE00420FBE700F0BDFF8046B07AF8B1D3
:1037A0000024012F10D00223012200213046FEF711
:1037B000C7FC0124404600F0B1FFFEF7DEFB0E20FF
:1037C00028702046BDE8F081022301220021304606
:1037D000FEF7B6FC641CB07AE4B20028F4D1E9E745
:1037E000404600F09BFF002028700020EAE770B5FB
:1037F000040004D02078032803D0012070BD0420E9
:1038000070BD00F087FF0546A07A58B10023012261
:1038100019462046FEF794FC284600F07FFFFEF78D
:10382000ACFB09E020894FF6FF71884206D2401CAC
:103830002081284600F072FF002070BD284600F06D
:103840006DFF322070BD2DE9F0410F46060005D016
:1038500037B13078032805D00120B3E70420B1E761
:103860000920AFE700F056FF0146B07AB871BC1CE2
:1038700006F10B050020401C15F8012BC0B204F81E
:10388000012B0428F7D330893880084600F046FF22
:10389000002097E770B50E460446150005D02CB100
:1038A0002078032804D00120107070BD0420FBE7AD
:1038B00000F030FF00212970218939B9A17A29B19E
:1038C00049212970BDE8704000F028BF2681F9E742
:1038D0009A000020A80000209B000020BC000020CF
:1038E0002DE9F05F0C4605461F2801D3FF2D01D1BD
:1038F0001F2C02D32A20BDE8F09F00F00BFFDFF859
:10390000F8C303465CF8240020B1184600F006FF17
:103910002820F0E7FF2D03D1F848006890F82E50DA
:103920005CF825201AB3012A26D0E108012000FA0C
:1039300001F604F0070AF7B200FA0AF0C6B2002056
:103940004CF825004CF8242092F830C0DFF8B0E3A2
:1039500092F8315092F832901EF80C00284221D093
:10396000A843DFF8A0B30EF80C000AD00FE0184609
:1039700000F0D4FE2920BEE7184600F0CFFE432019
:10398000B9E79BF8000020EA09008BF800009BF8DB
:10399000000038438BF800001EF8018048EA060852
:1039A0000EF80180D06998B100EB0C0898F80BC0B4
:1039B0003CEA050C88F80BC003D1857A25EA090595
:1039C0008572857A3D4385720844C57A3543C57250
:1039D00002F82E4F1846917082F801A01771D67028
:1039E00000F09CFEC8480078012801D1FEF7C5FA16
:1039F000002080E72DE9FE431C4616460F46804610
:103A00001F2B02D92A20BDE8FE8300F083FEBF49A8
:103A1000097819B100F082FE3C20F4E7B64D55F864
:103A2000241019B100F07AFE2820ECE7012145F8B6
:103A3000241000F073FE002332463946404600F061
:103A4000C4FE0026014600960196334632462046C3
:103A50000296FEF7D7FB070007D000F05BFE45F8A3
:103A6000246000F05BFE3846CDE7A74800780128C7
:103A7000F9D1FEF782FAF6E7D30707D0920705D50A
:103A80000022002902D004C0491EFAE770472DE940
:103A9000FF4F83B01C46DDE91386DDE9119792469E
:103AA0008B461F2B03D92A2007B0BDE8F08F00F00A
:103AB00031FE9649097819B100F030FE3C20F3E759
:103AC0008D4D55F8241019B100F028FE2820EBE7A1
:103AD000012145F8241000F021FE324639464846BF
:103AE000FFF7CAFF334652465946039800F06DFE71
:103AF0000097CDE9018601464A462046109BFEF715
:103B000081FB060008D000F005FE002145F82410D6
:103B100000F004FE3046C7E77B4800780128F9D161
:103B2000FEF72BFAF6E72DE9F047054677480078CF
:103B300010B14020BDE8F0871F2D04D005D3FF2D24
:103B400003D02A20F6E73E20F4E700F0E3FD064626
:103B5000FF2D03D16948006890F82E50DFF8989146
:103B600059F825405CB1012C0ED094F83010644A0D
:103B700094F83130505C984350540AD00FE03046EE
:103B800000F0CCFD4320D5E7304600F0C7FD3D20D6
:103B9000D0E75C4894F83220017891430170E169E4
:103BA00011B12046FEF7BCFA606A08B1FEF71BFCB3
:103BB0004FF00008A4F82A80554F84F82C8084F830
:103BC0002D803878FF2801D2401C3870304600F034
:103BD000A5FDFEF7A4FA00F09DFD0646387808B171
:103BE000401E3870204600F0EDFD4A480178491E1D
:103BF000017049F82580A0694146A0B1626942611F
:103C0000D4E90502826144480268626104603F2091
:103C100004F8480F3046617000F080FD3A480078A3
:103C2000012806D007E060693C4A81616069106044
:103C3000E9E7FEF7A2F900207CE710B504461F284B
:103C400004D00FD3FF2803D02A2010BD3E2010BD82
:103C500000F060FD2949096891F8334000F05EFDED
:103C6000204610BD00F056FD234951F8241041B103
:103C700001290AD03F2281F8332000F04FFD0020B7
:103C800010BD00F04BFD432010BD00F047FD3D206E
:103C900010BD2DE9F0410F460546140044D01F2DFC
:103CA00003D9FF2D01D02A2006E027B1174800785C
:103CB00020B1112000E00C20107035E000F02AFD4A
:103CC0000646FF2D03D10D48006890F82E500A4893
:103CD00050F82510432571B1012921D038464831CB
:103CE000FDF79AFF0546304600F018FD00202070D1
:103CF0002846BDE8F08113E0A40A0020BC000020A3
:103D0000B40000209E0000209F0000209A000020A8
:103D10009B000020A0000020C0000020C800002060
:103D2000304600F0FBFC25700020E2E72DE9F04171
:103D3000884605461400DCD01F2D03D9FF2D01D085
:103D40002A2006E0B8F1000F05D09448007820B191
:103D500012201070CDE70C20FBE700F0DBFC0646DC
:103D6000FF2D03D18E48006890F82E508D484327D0
:103D700050F825505DB1012D09D04046FDF78AFF6E
:103D80000F2809D9304600F0C9FC41200DE030462B
:103D900000F0C4FC2770ACE7414605F14800FDF790
:103DA0003BFF304600F0BAFC00202070A1E710B5C0
:103DB00004461F2801D32A2010BD00F0ABFC79492E
:103DC00051F8241059B101290DD091F82C20130776
:103DD00029D532F0080281F82C2008D009E000F043
:103DE0009DFC462010BD00F099FC432010BD4A8D7B
:103DF0001AB100F093FC002010BD6B4A91F83230EC
:103E000014782343137011F8302F684B49789C5C69
:103E10000C439C5400F082FC654800780128EAD1EC
:103E2000FEF7ABF8E7E700F079FC442010BD2DE980
:103E3000F0410E4604461F2803D9FF2C01D02A204A
:103E400057E746B100203060706000F063FC014627
:103E5000FF2C02D005E009204BE75148006890F89C
:103E60002E40504850F8240058B1012809D0027C57
:103E7000D2070BD0D0E902570024084600F04EFCD0
:103E80000AE0084600F04AFC432032E7084600F00A
:103E900045FC45202DE7641C01CD0028FBD0A00087
:103EA0003060381B80007060002022E770B5044647
:103EB0001F2804D005D3FF2C03D02A2070BD472033
:103EC00070BD00F027FC01463548FF2C006805D086
:103ED00090F82E00A04204D1012503E090F82E4076
:103EE000FAE700252F4850F8240058B101280ED0D9
:103EF00090F830202D4C90F83160A35CB343A3546C
:103F00000AD00FE0084600F009FC482070BD0846C2
:103F100000F004FC432070BD234A90F8324013782F
:103F2000A343137010F82C2F42F0080202700846C9
:103F300000F0F4FB0DB1FEF720F8002070BD70B565
:103F40000E4604461F2803D9FF2C01D02A2070BD3D
:103F50002EB100F0DFFB0546FF2C02D005E0092062
:103F600070BD0F48006890F82E400E4850F824109D
:103F700051B101290DD058223046FEF739F92846B3
:103F800000F0CCFB002070BD284600F0C7FB2920C4
:103F900070BD284600F0C2FB432070BD9A0000208F
:103FA000BC000020A40A00209E000020B4000020D5
:103FB0009F00002070B504465C48007800281DD1A1
:103FC000002C1BD000F0A6FB03465948594D016850
:103FD00091F8302091F83160A85CB043A85405D125
:103FE000554891F832500278AA4302704C85184621
:103FF00000F094FBBDE87040FDF7BFBF70BD70B529
:104000004A4C24780CB1552070BD00B919B13B2938
:1040100002D9512070BD1AB13B2A02D9522070BD7D
:104020002BB14FF47A74A34203D3532070BD5420B4
:1040300070BD4FF47A756B43B3FBF4F34FF46164D6
:104040006043C1EB011100EB8100104400EB400123
:10405000C1EBC01003EBC000040C80B2FFF7AAFF55
:104060004FF4004507E02846FFF7A4FF2846FFF776
:10407000A1FF641EA4B2002CF5D1002070BD10B5C4
:1040800004461F2801D32A2010BD00F043FB2B4912
:1040900051F8241091B1012910D04A8D92B100231A
:1040A0004B8591F82C2012F0370F0FD022F03702F9
:1040B00081F82C20012281F82D2009E000F02EFB50
:1040C000432010BD00F02AFB502010BD81F82D3098
:1040D00091F82C20120711D4174A91F83230147835
:1040E0002343137011F8302F124B49789C5C0C431A
:1040F0009C5400F013FBFDF740FF01E000F00EFBC5
:10410000002010BD10B500F005FB0D490C6800F053
:1041100005FB204610BD10B5044600F0FBFA084927
:104120000C60BDE8104000F0F9BA00009A000020D1
:10413000BC000020B40000209E000020A40A002043
:10414000CC0000202DE9F05F9B46DDE90BA517466A
:10415000884681462DB1012F0BD0022F04D0842038
:1041600044E00020BDE8F09FB8F1000F04D18320A7
:104170003CE0B9F1000F04D0F648007818B18B206C
:1041800034E0822032E000F094FAF348002604681C
:104190003CB3E1680160F148E66026610188491C92
:1041A0000180EF480188491E0180E4B1012084F8B4
:1041B0003100C4E9069884F83070C4F804B00A9855
:1041C000A0605FEA0A0008D0FDF764FD10280FD256
:1041D000514604F12000FDF71FFD00F066FA2E7035
:1041E0000FE03446E1E700F060FA86202870B8E777
:1041F000232084F8200084F821608C20287000F0AF
:1042000054FA2046AEE7002180F8311080F83010D3
:10421000C161416141603F22816080F8202080F8C7
:1042200021100161CC490A68C2600860CB4801884E
:10423000491E0180CA480188491C0180704710B599
:10424000017DC84A01F0070102EBC10100240B689F
:10425000C268834203D10A602AB1146103E0036992
:10426000DA6002B11361012280F83120C460046178
:104270008888401E888010BD70B505460C002CD083
:104280002DB12878642804D08920087025E08A2080
:10429000FBE7B048007808B18B20F6E700F009FA98
:1042A00095F83110A9B1002601290AD0022908D0B9
:1042B000032903D000F0F9F98D200DE02846FFF71F
:1042C000BEFF2846FFF79FFF00F0EFF926700120A0
:1042D00070BD00F0EAF987202070002070BD70B535
:1042E0000E46054614002FD02EB135B1287864282B
:1042F00006D0892002E0882000E08A20107023E0A8
:104300009448007808B11120F8E700F0D2F995F848
:104310003100A8B1012807D0022805D0032803D016
:1043200000F0C3F98D200EE005F120013046FDF7C5
:1043300073FC054600F0B9F900212170284670BDD4
:1043400000F0B3F987202070002070BD2DE9F04106
:1043500005460C003BD02DB12878642804D0892074
:10436000087034E08A20FBE77A48007808B18B2097
:10437000F6E700F09EF995F8310020B300260128F9
:1043800011D002281BD0032803D000F08EF98D2015
:104390001CE0754968690968451A00F086F92670BD
:1043A0002846BDE8F08195F83000AF69022801D1B8
:1043B00007B9EF6900F079F926703846F1E700F0A7
:1043C00074F9267003E000F070F987202070002057
:1043D000E7E770B505460C0005D035B128786428AC
:1043E00005D0892007E0002070BD8A2003E05948ED
:1043F000007810B18B200870F5E700F05AF995F8B5
:1044000031503DB1012D05D0022D03D0032D01D037
:104410008D2000E00020207000F047F9284670BD94
:10442000032280F83120504A0129126814D0816992
:1044300091B111444161017D4A4A01F0070102EB4B
:10444000C10100230A68086042B1C26010618A8815
:10445000521C8A8003617047C169EAE70122C36088
:10446000F7E770B505460C002DD02DB128786428EB
:1044700004D08920087026E08A20FBE735480078C0
:1044800008B18B20F6E700F014F995F83110B1B1BE
:10449000002601290AD0022908D0032903D000F000
:1044A00004F98D200EE02846FFF7C9FE00212846BA
:1044B000FFF7B6FF00F0F9F82670012070BD00F09C
:1044C000F4F887202070002070BD2DE9F0411746D8
:1044D0000E4605461C004ED02DB12878642804D025
:1044E0008920187047E08A20FBE71A48007808B155
:1044F0008B20F6E700F0DDF895F83100B0B3012825
:1045000023D0022821D0032803D000F0CEF88D203C
:1045100030E02846FFF793FE002020708EB18F20F8
:10452000032E03D0042E05D0842009E06A683AB136
:10453000A96802E06A681AB139462846904700E047
:10454000207000F0B2F801202BE700F0AEF88E20CA
:104550002070F8E79A000020EC000020DE00002028
:10456000DC00002034180020E0000020FFE700F00D
:104570009CF887202070002013E752480068FFF75E
:1045800036B908B5DFF83C81DFF83C914F4E6A46FA
:104590000021D8F80000FFF796F800F08AF830689C
:1045A000401C306000F00700022759F8304013E04B
:1045B00060693168E56888420DD1626812B12046B1
:1045C000A16890472046FFF73AFE94F83000022891
:1045D00007D084F831702C46002CE9D100F065F842
:1045E000D5E701212046FFF71BFFF4E770B588B03F
:1045F0004FF450713648FDF7D9FB40213248FDF7A2
:10460000D5FB33480022642300F1340114463F25D2
:1046100000F8313B521C00F8254992B240F8141BB7
:10462000343100F8015B0F2A00F8134BF0D303700C
:1046300080F83140C46080F8205080F82140234841
:10464000254904602348048010200880234920481D
:1046500008600120FEF7B0FF214D28600020FEF722
:10466000ABFF184E05AA1FA130602868FDF71CFBA0
:1046700005AA1FA13068FDF717FB802102910320D6
:10468000CDE903401D4A4FF6FD70CDE90002142329
:1046900002F5FE7200211A48FFF7F9F906AA19A1DE
:1046A0001420FFF743FB08B070BD0D480068FFF70A
:1046B0009EB808B50A486A4600210068FFF703F86B
:1046C00008BD0000E800002034180020E0000020B1
:1046D000F4120020DE000020DC000020EC000020AE
:1046E000E40000204F532D546D724C6F636B00003B
:1046F0004F532D546D72536967000000341600202B
:104700008345000875432F4F532D494920546D723E
:1047100000000000EFF3108072B6704780F310883D
:1047200070471D484FF0FF010170002080F3098899
:104730001A48012101701A484FF08051016062B699
:10474000FEE717484FF080510160704714484FF062
:1047500080510160704772B6EFF3098028B12038AC
:1047600080E8F00F0F490968086000B50E488047DF
:104770005DF804EB0D480E490A78027009480D49AE
:104780000A680260106890E8F00F203080F3098812
:104790004EF0040E62B6704722ED00E09F0000204C
:1047A00004ED00E0BC0000203D4800089C00002013
:1047B0009D000020C4000020274900200880704789
:1047C000704770477047704770474FF080731360B1
:1047D000131F1860A2F108006FF001030360001FAF
:1047E0004FF012330360001F4FF003330360001FCC
:1047F0004FF002330360001F5B100360001F016075
:10480000001F4FF011310160001F19010160001FEE
:104810004FF009310160001FD9000160001F4FF007
:1048200007310160001F4FF006310160001F4FF09B
:10483000053101609900001F0160704770477047A3
:1048400005490888401C80B20880642803D30020F2
:104850000880FFF792BE7047F0000020D2B201E05E
:1048600000F8012B491EFBD270470022F6E710B575
:1048700013460A4604461946FFF7F0FF204610BDCE
:10488000064C074D06E0E06840F0010394E807009D
:1048900098471034AC42F6D3FBF74EFCC8490008E9
:1048A000E849000802E008C8121F08C1002AFAD12E
:1048B00070477047002001E001C1121F002AFBD1A0
:1048C0007047000000A24A0400000100020001003D
:1048D00003000100020001000400010002000100C9
:1048E00003000100020001000500010002000100B8
:1048F00003000100020001000400010002000100A9
:104900000300010002000100060001000200010096
:104910000300010002000100040001000200010088
:104920000300010002000100050001000200010077
:104930000300010002000100040001000200010068
:104940000300010002000100070001000200010055
:104950000300010002000100040001000200010048
:104960000300010002000100050001000200010037
:104970000300010002000100040001000200010028
:104980000300010002000100060001000200010016
:104990000300010002000100040001000200010008
:1049A00003000100020001000500010002000100F7
:1049B00003000100020001000400010002000100E8
:1049C0000300010002000100E84900080000002087
:1049D000F4000000A4480008DC4A0008F4000020AD
:1049E00084190000B4480008020406080000000012
:1049F000010203040102030406070809400003182A
:104A00008000031834080040340200201000000029
:104A100026010000000000008000000000010000EE
:104A20000000000020000000002000000000000046
:104A30003808004034020020100000002601000069
:104A400000000000800000000001000000000000E5
:104A50002000000000200000000000000000000016
:104A6000590000000000600001000000000000008C
:104A70000000000000000000000000000000000036
:104A80000000000000000000000000000000000026
:104A90000000000000000000000000000000000016
:104AA0000000000000000000000000000000000006
:104AB00000000000000000000000000000000000F6
:104AC00000000000000000000000000000000000E6
:0C4AD000000000000000000000000000DA
:0400000508000147A7
:00000001FF
